:10067800AD07AC06300205200302E1325389FC4382
:10068800890190FFB1E030E7047F0180027F0074A8
:10069800FA7E00A807088005C333CE33CED8F9FF09
:1006A800C374FE9F74FF9EF58C90FFB1E030E704A1
:1006B8007F0180027F0074FAA807088002C333D83C
:1006C800FCFFC374FE9FF58AD28C300203300358B6
:1006D800308DF7C28CC28D90FFB1E030E7047F0106
:1006E80080027F0074FA7E00A807088005C333CE15
:1006F80033CED8F9FFC374FE9F74FF9EF58C90FF2C
:10070800B1E030E7047F0180027F0074FAA807088F
:100718008002C333D8FCFFC374FE9FF58AD28CEDE8
:0B0728001D70011CED4C70A2C28C2261
:10010300E47822F2F9C9F208F208E9F2EF1203EBFC
:10011300017101017402017703017A060187070166
:10012300940801960901990A01B30B01C70C01E276
:100133000D01FD0E02000F020310020711020A1245
:10014300020D1302101402141502171802171902D4
:100153001A1A021D2002202102312302552D026F9B
:1001630030028A31028A32028A390000028F020980
:100173003E020E2B020E0D7822E4F2087400F20800
:100183007424F2227822E4F2087400F2087422F252
:10019300224162020CBA90FFFFE0F544757A0075C4
:1001A3007B12782274FFF2087400F2087406F222BC
:1001B300782274FFF2087400F2087418F2757A005A
:1001C300757B6D22E57264046002418FF57A757B5D
:1001D30009782274FFF2087400F20874F6F222E53B
:1001E3007264046002418FF57A757B2D782274FF67
:1001F300F2087400F20874C9F222020B9B020CF796
:1002030043220222020D32020C33020C7C5322FDE4
:1002130022020D66020D9A020B4B020733E573248B
:10022300FE700678227406F222E47822F222E57345
:1002330024FE700BA200E433754100F5428005787B
:10024300227401F27822E27043E542754200F541DF
:10025300800FE57224FC702FE53C754200F5417870
:1002630022E4F2087400F2087441F222AF7FEF2413
:1002730070FFE434FAFEAD7F7C00EF2DFFEC3E8F80
:0D02830082F583E0F53C2278227401F2221E
:100E0D00E57214600A247E700C78227403800A78CF
:0E0E1D002274018004782274FFF208E4F222AD
:100E2B00E57214600A24FD700C78227403800A7832
:0E0E3B002274018004782274FFF208E4F2228F
:100C7C00E57214602D24FD60292402702BE5706050
:100C8C0006E57064017021857036E53690FFE870DA
:100C9C000304F0227481F0120DC290FFFDE04410A9
:0E0CAC00F022E5706007800078227401F222C9
:10093E00E57E24EC601414602214601C14603824CC
:10094E00F86043240C705FC20322C203E524605694
:10095E00120411D206020AF8D20422C2043005088B
:10096E00120E5B120E69C20590FFFEE030E737E40F
:10097E00F544A3F0F5242290FFFFE544F030020386
:10098E00C20222D2022230041DE52230E11890FF6D
:10099E00FCE04420F0E054DFF090FFCA74FFF090CA
:0709AE00FFB1E054BFF0228D
:100B9B00E57014601B14602C2402703C757A007590
:100BAB007B04782274FFF2087400F2087485F22239
:100BBB00757A00757B24782274FFF2087400F208B2
:100BCB007489F222757A00757B1C782274FFF20807
:0E0BDB007400F20874ADF22278227401F22246
:100CBA00E572146018247F601414601E2483702760
:100CCA007822E4F2087400F2087426F2227822E408
:100CDA00F2087400F2087437F2227822E4F20874F7
:0D0CEA0000F208743AF22278227401F2221E
:100CF700E57224FE601524FE601E24037027782207
:100D0700E4F2087400F2087425F2227822E4F2086B
:100D17007400F2087436F2227822E4F2087400F2C2
:0B0D2700087439F22278227401F222D5
:100D3200E57214600F247F600B1460172483701E09
:100D42004326012243370190FFA0E04408F090FFC0
:100D5200588006433A0190FF50E04408F02278227E
:040D62007401F22204
:100C3300857024E524701EF536433701433A01904D
:100C4300FF50E04408F090FFA0E04408F090FF5804
:100C5300E04408F0221209B5D206120BE95337FE1D
:100C6300533AFE90FFA0E054F7F090FF58E054F79A
:090C7300F090FF50E054F7F0226C
:100D6600E57214600F247F600B1460172483701ED5
:100D76005326FE225337FE90FFA0E054F7F090FF73
:100D8600588006533AFE90FF50E054F7F02278223E
:040D96007401F222D0
:100D9A00E57324FE701CAF7FEF2470FFE434FAFE83
:100DAA00AD7F7C00EF2DFFEC3E8F82F583E013923E
:080DBA00002278227401F222EC
:100B4B00E57324FE7044AF7FEF2470FFE434FAFEAC
:100B5B00AD7F7C00EF2DFFEC3E8F82F583E0FDAF88
:100B6B007FEF2470FFE434FAFEAB7F7A00EF2BFFAC
:100B7B00EA3E8F82F583E0A3E0FEEDFFAD70ED253D
:100B8B00E02426F8A60608A6072278227401F22292
:10073300AF7FEF2470FFE434FAFEAD7F7C00EF2D32
:10074300FFEC3E8F82F583A3E0B4AC1AAF7FEF24B6
:1007530070FFE434FAFEAD7FEF2DFFEC3E8F82F5A0
:1007630083E064446037AF7FEF2470FFE434FAFE24
:10077300AD7F7C00EF2DFFEC3E8F82F583A3E06419
:10078300BB705EAF7FEF2470FFE434FAFEAD7FEF02
:100793002DFFEC3E8F82F583E064807044E5721494
:1007A300703AAF7FEF2470FFE434FAFEAD7F7C0034
:1007B300EF2DFFEC3E8F82F583A3E0FEAD7FED24AA
:1007C30070FDEC34FAFCAB7F7A00ED2BFDEA3C8D37
:1007D30082F583E0FDEEF534EDF5352278227401E0
:0207E300F22200
:100BE900200846300641120DC290FFB1E054FEF0D4
:100BF90090FFE0740CF090FFDF74E5F090FFDE7475
:100C0900ACF090FFDD7403F090FFE87401F0A37479
:100C190080F0A37403F090FFE87401F0E04480F0E1
:0A0C290090FFB1E04401F0D2082270
:0100FF0022DE
:010E89002246
:070E7600C208C206020BE9ED
:10080000E4F5A8C2907F50FE12067890FFB1E04454
:1008100004F07F0A7E00120678D29675A0FA783925
:100820007403F2E4F541F542E54245416007E4FD19
:10083000FCFF120103120E7D120DC27F051207F894
:1008400090FFDC7401F0120E5BC202C204C205C24A
:1008500003757F087F041207F890FFFDE04410F055
:100860007545057546DCE5247005120DE980F7E451
:10087000F545F546C202C204C205C203051AE51ACF
:100880007002B291120DE91205783004EF2002ECEB
:1008900090FFFFE060E6120E49D2051207E575876A
:1008A000092005FD120DE9C2047F147E00120678AE
:0208B00080CAFC
:050E7D00C208020AA1F9
:100AA100752201752300C204C202E4F541F542F545
:100AB10024F525752601F527C200D201752AE975AD
:100AC1002B807528E9752980752ED1752F80752C9D
:100AD100D1752D80753030F531753230F533F53EF5
:100AE100F539F536753A01F53B753701F538F53CC1
:070AF1007534AC7535442299
:1009B50090FF60E4F090FF48F090FF40F090FF3822
:1009C500F090FF30F090FF98F090FF90F090FF8846
:1009D500F090FF80F090FF78F090FF70F090FFA00E
:1009E50074C5F0A37452F0A37448F0A3E4F090FF2B
:1009F500A5F090FFA7F090FF5874C0F0A3749AF08B
:100A0500A37401F0A3E4F090FF5D749AF090FF5F8A
:100A1500E4F090FF507480F090FF53F090FF517414
:070A25009BF0A37401F02215
:10057800C207C206E529652D7004E528652C60626E
:10058800D206C3E529952DE52C6480F8E52864801A
:1005980098502C7480252DF52D74FE352CF52CC320
:1005A800E52D9480E52C648094514030D3E529955D
:1005B8002DE52C6480F8E5286480984025801D741A
:1005C80080252DF52D7401352CF52CC3E529952DA5
:1005D800E52C6480F8E528648098500685282C85E9
:1005E800292DE52B652F7004E52A652E6062D20659
:1005F800C3E52B952FE52E6480F8E52A6480985092
:100608002C7480252FF52F74FE352EF52EC3E52F7B
:100618009480E52E648094514030D3E52B952FE5E6
:100628002E6480F8E52A6480984025801D74802512
:100638002FF52F7401352EF52EC3E52B952FE52EBA
:100648006480F8E52A6480985006852A2E852B2F29
:10065800A200300101B35006D206A2009201300672
:1006680004D207C2063007077F057E0012067822EB
:0D0E6900C290C291120E76E4F545F54622C6
:100E4900E4F545F546C206120AF8120E89D290D287
:020E59009122E4
:100AF800E5464545702590FFE830060D04F0748101
:100B0800F075450075460180127401F07F647E001F
:100B1800120678D2967545077546D0C3E54694D037
:100B2800E5459407501CE5469400E54594004012BD
:100B38000546E54670020545B4D007E545B4070209
:030B4800C2962230
:1007E50090FFB1E04440F0D2B3D2B4D2B590FFCA85
:0307F500E4F0220B
:0E0E5B0090FFCA74FFF090FFB1E054BFF02288
:100DE900300220D20390FFFDE04410F07F0E7E0018
:100DF90012067830030990FFFFE4F0F544F524C2A8
:040E090003C20222FC
:100006001201000100000008510420100001010245
:10001600000109026D0002010040320904010000DE
:100026000101000009240100011E0001020C240246
:10003600010101000203000000092403030103007B
:100046000100090402000001020000090402010285
:1000560001020000072401010101000B2402010234
:1000660003180144AC0009050105200101008207BF
:1000760025010100000009058201030001050004B5
:10008600030904240354006500780061007300200E
:100096000049006E0073007400720075006D006503
:1000A600006E00740073001C0354004100530020CE
:1000B600003100300032003000410020004500567B
:1000C600004D00050C0901A101050C09E9050C0903
:1000D600EA15002501950275018142050C09E21514
:1000E600002501950175018106950175058101C0FF
:0900F600092100010001222D0086
:03010000020103F6
:020E8600C109A0
:100A2C00A2B5E433FF3009086002C2097F018009D6
:100A3C00EF6003C38001D39209EF25E0FFA2B4E479
:100A4C00334F25E0FFA2B3E4334FF45407FF146097
:100A5C000B14600824FE60048000E4FFEF60359006
:100A6C00FF53E020E7033004F620042890FCD8EF75
:100A7C00F090FF537401F090FF53E020E703300433
:100A8C00F620041090FCD8E4F090FF5304F07F7C27
:050A9C00FE12067822A5
:03000300020E8268
:040E820002800332B5
:0807F800029FFD7E007F01223B
:100DC200750C03E4F508F509F50AF50B90FFE574D7
:100DD2006AF0A3744BF0A37420F090FFE27410F059
:070DE20090FFE1744CF022C8
:1004110085080A85090B90FFE4E0F50990FFE3E008
:10042100F508C3E509950BF51CE508950AF51B755B
:100431001B2C751C1AE50C600281FFAE1BAF1CFC66
:10044100FDE5102FF510E50F3EF50FED350EF50E1C
:10045100EC350DF50DE47B04FAF9F8AF10AE0FADF4
:100461000EAC0D1203338E1B8F1CE51BF511FEC361
:10047100E51C9400FFE51B9EFE7C037DE8120290C3
:10048100EEFFE48F15F514F513F512851119F51822
:10049100F517F516AF19AE18AD17AC16780E120395
:1004A100D88F198E188D178C16AF15AE14AD13ACED
:1004B1001278041203D88F158E148D138C12E51542
:1004C1004519F519E5144518F518E5134517F517FC
:1004D100E5124516F516E519FF90FCD0EFF0AE18C0
:1004E100AD17AC1678081203C5A3EFF0AF19AE181B
:1004F100AD17AC1678101203C5A3EFF0803BE50CE5
:10050100B4030FAE1BAF1CE48F108E0FF50EF50D6B
:100511008027E50CB402028005E50CB4011BAE1B7B
:10052100AF1CE4FCFDE5102FF510E50F3EF50FEDD6
:10053100350EF50EEC350DF50DE50C700F750C0350
:1005410090FF5B7403F090FF5FF08002150CE536BD
:10055100602490FFECE0FE90FFEBE0FDEEF50AED8C
:10056100F50BFF7C007D061202A2ED4C600890FFA6
:07057100E8E4F07481F022C0
:030000000208B241
:0C08B200787FE4F6D8FD75817F0208F91C
:10029000EF8DF0A4A8F0CF8CF0A428CE8DF0A42E82
:0202A000FE223C
:1002A200BC000BBE0029EF8DF084FFADF022E4CC40
:1002B200F875F008EF2FFFEE33FEEC33FCEE9DEC09
:1002C200984005FCEE9DFE0FD5F0E9E4CEFD22ED4F
:1002D200F8F5F0EE8420D21CFEADF075F008EF2F99
:1002E200FFED33FD4007985006D5F0F222C398FD8A
:0502F2000FD5F0EA2227
:1002F70075F008758200EF2FFFEE33FECD33CDCCBE
:1003070033CCC58233C5829BED9AEC99E582984040
:100317000CF582EE9BFEED9AFDEC99FC0FD5F0D61D
:10032700E4CEFBE4CDFAE4CCF9A88222B800C1B947
:100337000059BA002DEC8BF084CFCECDFCE5F0CB85
:10034700F97818EF2FFFEE33FEED33FDEC33FCEBBE
:1003570033FB10D703994004EB99FB0FD8E5E4F979
:10036700FA227818EF2FFFEE33FEED33FDEC33FC66
:10037700C933C910D7059BE99A4007EC9BFCE99A5A
:10038700F90FD8E0E4C9FAE4CCFB2275F010EF2F9F
:10039700FFEE33FEED33FDCC33CCC833C810D7079F
:1003A7009BEC9AE899400AED9BFDEC9AFCE899F8DA
:0E03B7000FD5F0DAE4CDFBE4CCFAE4C8F9226D
:1003C500E8600FECC313FCED13FDEE13FEEF13FF16
:0303D500D8F1223A
:1003D800E8600FEFC333FFEE33FEED33FDEC33FC83
:0303E800D8F12227
:1003EB00D083D082F8E4937012740193700DA3A3A1
:1003FB0093F8740193F5828883E4737402936860B5
:06040B00EFA3A3A380DFB4
:1008BE00020800E493A3F8E493A34003F68001F248
:1008CE0008DFF48029E493A3F85407240CC8C3333B
:1008DE00C4540F4420C8834004F456800146F6DF0A
:1008EE00E4800B0102040810204080900E86E47E06
:1008FE00019360BCA3FF543F30E509541FFEE493FF
:10090E00A360010ECF54C025E060A840B8E493A3C5
:10091E00FAE493A3F8E493A3C8C582C8CAC583CAF0
:10092E00F0A3C8C582C8CAC583CADFE9DEE780BEA8
:010E88000069
:00000001FF
